:060000000A128A110C280F
:10000800FE00030EF0000A08F1000A128A11362BCE
:100018000A128A110F28FA01FB0183132030840089
:100028004D300A128A1160230A128A1183010A12BA
:100038008A11172A831203135308840000088400C6
:100048000A128A1123230A128A11253A031D2D2820
:100058002E28C6285308840001308007C001C1013A
:100068000030C800FF30C200FF30C30053088400CE
:100078000008DB005B0884000A128A1123230A1295
:100088008A11753A031D49284A28BF285408840054
:1000980083130008D5000230800755088400000843
:1000A800D700840A0008D800530884005B08013E82
:1000B8008000B4282030DC000130DC025C08203EDF
:1000C80084000A30F2000030F3005808F5005708A1
:1000D800F4000A128A1190220A128A117208303E1C
:1000E800831380000A30F2000030F30083120313F8
:1000F8005808F5005708F4000A128A11D5210A1287
:100108008A11730883120313D8007208D70057089E
:100118005804031990289128AD285C08031D9528D8
:1001280096286028AD285C08203E840083130008C8
:10013800D500D6015508F3005608F4005208F5001A
:100148000A128A117E210A128A11013083120313BE
:10015800DC0720305C06031DB228B3289728DD2869
:100168005B0884000A128A1123230A128A11753A3D
:1001780003195E28BF288312031353088400013033
:100188008007DD2853088400000884000A128A11B9
:1001980023230A128A11D500D6015508F300560800
:1001A800F4005208F5000A128A117E210A128A11F7
:1001B800BF280800013083120313C4070318C50AB7
:1001C8000030C50769291F14C3309F050130CA07CD
:1001D8007D299F140130CA077D29831603131E0841
:1001E80083120313CD00CE014D08CF004E08D00076
:1001F8001E08CD00CE014D08CE00CD014D08CF041C
:100208004E08D00406300310D00CCF0CFF3E031D5F
:1002180007290A30F2000030F3005008F5004F08B3
:10022800F4000A128A11D5210A128A11720883125F
:100238000313CC001F08C33904389F00EE289F140D
:10024800EE28831603131E0883120313CD00CE0174
:100258004D08CF004E08D0001E08CD00CE014D0835
:10026800CE00CD014D08CF044E08D004063003104F
:10027800D00CCF0CFF3E031D3B290A30F2000030A2
:10028800F3005008F5004F08F4000A128A11D5212E
:100298000A128A11720883120313CB001F107A14F2
:1002A800EE284508CE004408CD00C40A0319C50A43
:1002B80003304E02E83003194D02031C64296529F6
:1002C8007D29C401C501CA017D294A08003A0319DC
:1002D800E728013A0319ED28033A0319F128013AEE
:1002E80003192329073A03192529013A031955291E
:1002F8007D2908007508031982298329882975082A
:10030800031D872988298F2973080A128A11562301
:100318000A128A11D4297508083E8400831300083C
:1003280083120313CD00840A0008CE004D084E0442
:1003380003199F29A029BD297508083E84000008D3
:10034800CD00840A0008CE00750A84000008CF009A
:10035800840A0008D0005008803AD1004E08803A3C
:100368005102031DB9294D084F020318BC29BD29A4
:10037800D429750A84008313000883120313CD005F
:100388007508840000084D07CE004E0884007308E5
:100398008000750A840001308007840A0318800AE7
:1003A8000800F601F701720873040319DC29DD2936
:1003B800122A0130F800E92901300310F20DF30D7B
:1003C800FF3E031DE1290130F807F31FEC29ED2951
:1003D800E02901300310F60DF70DFF3E031DEE294D
:1003E80073087502031DFA2972087402031CFD299B
:1003F800FE29052A7208F4027308031CF503F502A6
:10040800761401300310F30CF20CFF3E031D062A8C
:100418000130F802031D112A122AED297708F3008A
:100428007608F20008000A128A1157220A128A1165
:10043800FA1C1F2A202A1C2AFA100A128A11EB22F7
:100448000A128A110A128A1109230A128A110A1237
:100458008A11DE200A128A117A1C332A342A1C2AAD
:100468007A10013083120313E0004C08E800E90118
:100478006808E1006908E2004B08EA00EB016A0835
:10048800E3006B08E4007B08EC00ED016C08E50074
:100498006D08E6000A128A1147230A128A111C2ADB
:1004A8000A128A110C287030831603138F040F1D4B
:1004B8005E2A5F2A5B2A831603178801890183163F
:1004C80003130911831203130911831603138113EC
:1004D800811281110108F8390338810083308312B1
:1004E800031381000B118B16831603170814881445
:1004F800831203131F083F3980389F0083160313A4
:100508001815981683120313181298173330831688
:10051800031399008B170800720873040319952AAE
:10052800962AC32A0130F600A22A01300310F20DE0
:10053800F30DFF3E031D9A2A0130F607F31FA52A83
:10054800A62A992A73087502031DAC2A7208740238
:10055800031CAF2AB02AB62A7208F4027308031CD7
:10056800F503F50201300310F30CF20CFF3E031DF6
:10057800B72A0130F602031DC22AC32AA62A750823
:10058800F3007408F2000800831203135E08F900F0
:10059800DA2A831203135D08D2007930D3005F088A
:1005A800D4000A128A111E200A128A1179088400BE
:1005B8000A128A1123230A128A11003A031DE52A16
:1005C800E62ACD2A83120313DD01DE010800831217
:1005D80003134708F3004608F200C60A0319C70ABE
:1005E80003307302E83003197202031CFC2AFD2A47
:1005F800002BC601C7010915C83046064704031D6C
:10060800062B072B082B0911080083120313060871
:1006180001397B060319112B122B212B0130C90735
:10062800FF304907F200C8307202031C1C2B1D2B37
:10063800222B06080139FB00222BC90108000330D0
:100648008A000408840A8207003452343A34253474
:1006580075342C34253475342C34253475340D34E4
:100668000A3400340B1D392B3A2B402B0B118330E5
:10067800831203138107FA1471088A00700E83002D
:10068800FE0E7E0E0900613083120313E700DD01C0
:100698006008DE006730DF000A128A11C8220A12D9
:1006A8008A110800F200831203130C1E5C2B5D2BC9
:1006B800572B72089900080064008001840A040618
:0806C800031900340406612B44
:02400E00F42C90
:00000001FF
