:060000000A128A110C280F
:10000800FE00030EF0000A08F1000A128A11AD2B57
:100018000A128A110F28FA01F801F9018312031351
:10002800A001A101A201A301A401A501A601A701A4
:10003800A801A901AA01AB01AC01AD0183010A1213
:100048008A11512BF128F20100300A128A11E72196
:100058000A128A110130F4000A128A1191230A1235
:100068008A11F201F20A00300A128A11E7210A12F3
:100078008A111E30F4000A128A1191230A128A1179
:10008800F201F20A03300A128A11E7210A128A11D0
:1000980083120313A501A601F9010130F80005290F
:1000A8000A128A1196220A128A1183120313AF00C8
:1000B8002F0803196028612883282608F7002508D7
:1000C800F600A50A0319A60A00307702643003195E
:1000D8007602031C7028712805292F080A128A1134
:1000E80090210A128A1183120313AE002E080A12F5
:1000F8008A11F5220A128A110230F8000529A50191
:10010800A60105297908293E8400831203132E08C5
:10011800831380000130F90704307902031C952805
:1001280096289D287908293E840080010430F8002B
:1001380005290330F80005290A128A1196220A12A5
:100148008A11003A031DA928AA2805295128F20175
:10015800F20A00300A128A11E7210A128A1127309E
:10016800F2002930F3000A128A1132220A128A1187
:10017800720883120313AF002F08031DC428C52873
:10018800CD280B30F4000A128A1191230A128A1121
:10019800D4281530F4000A128A1191230A128A1100
:1001A8000530F8000529831203132608F7002508EF
:1001B800F600A50A0319A60A07307702D0300319FA
:1001C8007602031CE828E928052901300A128A1159
:1001D80023230A128A11F80105297808003A03191D
:1001E8002728013A03195428033A03198628013AA3
:1001F8000319A028073A0319AB28013A0319D7288D
:1002080005290800831603138812081283120313A2
:10021800081288120D30F500FB30F400F40B122997
:10022800F50B122917290D30F500FB30F400F40BFB
:100238001B29F50B1B2920290D30F500FB30F40094
:10024800F40B2429F50B24292929F03083160313EC
:100258008805F03083120313880503308804881654
:1002680035298312031388120D30F500FB30F40092
:10027800F40B3C29F50B3C294129F0308312031378
:1002880088050330880488164929831203138812C5
:100298002130F400F40B4E292130F400F40B5229DC
:1002A800F0308312031388050330880488165C290C
:1002B8008312031388122130F400F40B6129F03003
:1002C800831203138805881488166A298312031376
:1002D80088122130F400F40B6F292F300A128A118A
:1002E80023230A128A110E300A128A1123230A12B2
:1002F8008A1106300A128A1123230A128A11013040
:100308000A128A1123230A128A1102300A128A1148
:1003180023230A128A110800F200B4294430E6297E
:100328002330E6293030E6292A30E6294330E62909
:100338003930E6293830E6293730E6294230E629CF
:100348003630E6293530E6293430E6294130E629C9
:100358003330E6293230E6293130E6293F30E629C4
:100368007208773A0319B0290C3A0319AE29063AEC
:100378000319AC29033A0319AA29C93A0319A82968
:100388000C3A0319A629063A0319A429033A0319B2
:10039800A229693A0319A0290C3A03199E29063A99
:1003A80003199C29033A03199A29393A03199829F8
:1003B8000C3A03199629063A03199429033A0319A2
:1003C8009229B2290800F400F5298030F500032AA3
:1003D800C030F500032A9430F500032AD430F50024
:1003E800032A7208003A0319E929013A0319EC298A
:1003F800033A0319EF29013A0319F229032A740869
:10040800F507831203130812F030831603138805C7
:10041800F0308312031388057508F30004300310C5
:10042800F30CFF3E031D132A7308880488161C2A40
:10043800831203138812F030880575080F39880471
:100448008816262A8312031388120F308316031383
:1004580088042130F300F30B2F2A0800372A0130D3
:10046800F2070130F3077308840083130008F400CF
:10047800720884000A128A1165220A128A11740607
:10048800031D472A482A542A720884000A128A112E
:1004980065220A128A11003A031D532A542A332A64
:1004A800720884000A128A1165220A128A11F4005D
:1004B8007308840000087402F200F301031CF303BC
:1004C800080002308A000408840A820700342034B5
:1004D800503441345334533457344F345234443401
:1004E8000034203443346F347234723465346334E6
:1004F80074346F3400342034203445347234723408
:100508006F34723420340034203420345B34203487
:100518002034203420345D340034333430343234E1
:10052800323400340430F300F730F500BA2A750885
:100538008312031386000000F030831203130605AC
:10054800F200F03072060319AA2AAB2AB52A060867
:10055800F400F030F4050F30F505860174087504D1
:10056800C52A7508F2000310720CF5000130F30279
:10057800730A031DC02AC12A9B2A8312031386010A
:10058800003008007030831603138F040F1DCD2A26
:10059800CE2ACA2A831603178801890183160313F2
:1005A800091183120313091183160313811381128E
:1005B80081110108F839033881008330831203134D
:1005C80081000B118B1683160313181598168312C6
:1005D80003131812981733308316031399008B17D7
:1005E8000800F300831203130816F0308316031370
:1005F8008805F0308312031388057308F20004306D
:100608000310F20CFF3E031D042B720888048816A1
:100618000D2B831203138812F030880573080F39E5
:1006280088048816172B8312031388120F30831639
:10063800031388042130F200F20B202B0800F3008A
:10064800831203130812F030831603138805F03061
:100658008312031388057308F20004300310F20CA8
:10066800FF3E031D322B7208880488163B2B831229
:1006780003138812F030880573080F398804881628
:10068800452B8312031388120F3083160313880433
:100698002130F200F20B4E2B08000A128A11C622F2
:1006A8000A128A110A128A1106210A128A110A12DA
:1006B8008A11BE230A128A117A1C632B642B602BC1
:1006C8007A100A128A1173230A128A110A128A11DD
:1006D80026200A128A11602B0A128A110C2883120A
:1006E80003132808F3002708F200A70A0319A80A29
:1006F80003307302E83003197202031C842B852B24
:10070800882BA701A8010915C83027062804031D4E
:100718008E2B8F2B902B09110800A02B74088400B6
:100728000A128A1165220A128A110A128A11F522FE
:100738000A128A110130F407740884000A128A1117
:1007480065220A128A11003A031DAB2BAC2B922B9F
:1007580008000B1DB02BB12BB72B0B118330831264
:10076800031381077A1471088A00700E8300FE0E45
:100778007E0E0900F03083160313860083120313DC
:0407880086010800DE
:02400E00F42C90
:00000001FF
