:060000000A128A110E280D
:10000800FE00030EF3000408F4000A08F5000A12C3
:100018008A11C82A0A128A1111280A128A116A2317
:100028000A128A11FC008313203084004F300A1210
:100038008A1162230A128A11F701F801F901FA01FB
:10004800FB0183010A128A11102A8312031359082B
:1000580084008313000884000A128A114B230A12B1
:100068008A11253A031D39283A28D22859088400CC
:1000780001308007C001C1010030C600FF30C20056
:10008800FF30C300590884000008E10061088400BB
:100098000A128A114B230A128A11753A031D552830
:1000A8005628CA285A0884000008DB000230800756
:1000B8005B0884000008DD00840A0008DE00590897
:1000C80084006108013E8000BF282030E200013032
:1000D800E2026208203E84000A30CF000030D000DF
:1000E8005E08D2005D08D1000A128A118E220A1217
:1000F8008A11831203134F08303E831380000A309D
:10010800CF000030D0005E08D2005D08D1000A128E
:100118008A11CC210A128A11831203135008DE00B7
:100128004F08DD005D085E0403199B289C28B82849
:100138006208031DA028A1286B28B8286208203E61
:10014800840083130008DB00DC015B08D0005C0836
:10015800D1005808D2000A128A11EA200A128A111C
:10016800013083120313E20720306206031DBD2805
:10017800BE28A228E928610884000A128A114B23A4
:100188000A128A11753A03196928CA2883120313B7
:1001980059088400013083138007E928590884002E
:1001A800000884000A128A114B230A128A11DB0004
:1001B800DC015B08D0005C08D1005808D2000A12A4
:1001C8008A11EA200A128A11CA2808008312031326
:1001D80052080319F028F128F6285208031DF528BB
:1001E800F628FD2850080A128A1158230A128A1183
:1001F80040295208083E840083130008D300840A6B
:100208000008D4005308540403190B290C29292980
:100218005208083E84000008D300840A0008D4006D
:10022800520A84000008D500840A0008D60056083F
:10023800803AD7005408803A5702031D25295308ED
:100248005502031828292929402983120313520A21
:10025800840083130008D300520884000008530761
:10026800D4005408840050088000520A84000130E9
:100278008007840A0318800A080070308316031365
:100288008F040F1D4829492945298316031788011A
:1002980089018316031309118312031309118316A5
:1002A800031386108113811281110108F83903386C
:1002B800810083308312031381000B118B16831680
:1002C800031318159816831203131812981733304E
:1002D800831603139900831203131208FC3901389B
:1002E800920012088739203892009101FA3083165B
:1002F800031392008312031312158C108316031331
:100308008C140B178B170800BD298312031386144E
:10031800053083120313CF00CF0B90299329831242
:10032800031386100130F807CB2983120313061C28
:100338009E299F29CB29F90196290130F9078312B3
:1003480003130618A829A929AE297908FA007B14ED
:100358000130F8070130F907FF30790783120313DA
:10036800CF00FA304F02031CBA29BB29CB29F80168
:10037800CB297808003A03198929013A03199929E0
:10038800033A0319A129013A0319AE29CB29080018
:1003980083120313D401D5014F0850040319D5293A
:1003A800D6290B2A0130D300E22901300310CF0DE2
:1003B800D00DFF3E031DDA290130D307D01FE529F0
:1003C800E629D92901300310D40DD50DFF3E031DB0
:1003D800E72950085202031DF3294F085102031C54
:1003E800F629F729FE294F08D1025008031CD20329
:1003F800D202541401300310D00CCF0CFF3E031D61
:10040800FF290130D302031D0A2A0B2AE6295508C1
:10041800D0005408CF0008000A128A1141210A129C
:100428008A110A128A113C230A128A113230831265
:100438000313C700FB1C212A222A1E2AFB100A12BA
:100448008A110F230A128A110A128A1188210A12A4
:100458008A117B1C302A312A1E2A7B100130831214
:100468000313E7007A08EB00EC016B08E8006C085E
:10047800E9000A128A112D230A128A110B307A0216
:10048800031C472A482A1A2A5A3083120313C70022
:100498001E2A0A128A110E2877080319542A552A87
:1004A8005C2AFA30F1000130F7070310FC0D842AAA
:1004B800831203130808F0007C08F005700803197C
:1004C800662A672A6A2A7C0988056C2A7C088804B7
:1004D8004730F2007708F20708087C050319752AE7
:1004E800762A7D2A72088400831300085F3EF10093
:1004F800842A7208840083130008963CF100572A66
:100508007C08031D882A892A8C2AF7010130FC00FF
:1005180071080800831203134F0850040319952A21
:10052800962AC32A0130D300A22A01300310CF0D26
:10053800D00DFF3E031D9A2A0130D307D01FA52AEC
:10054800A62A992A50085202031DAC2A4F085102C4
:10055800031CAF2AB02AB62A4F08D1025008031C40
:10056800D203D20201300310D00CCF0CFF3E031D82
:10057800B72A0130D302031DC22AC32AA62A520869
:10058800D0005108CF0008000B1DCB2ACC2AD22A54
:100598000B118330831203138107FB148312031397
:1005A8008C1CD72AD82AE52A0A128A1150220A1244
:1005B8008A11F60076088316031392008312031338
:1005C8008C1075088A0074088400730E8300FE0E70
:1005D8007E0E0900831203136408E600FE2A6308EE
:1005E800D8006630D9006508DA000A128A11292075
:1005F8000A128A1183120313660884000A128A11E8
:100608004B230A128A11003A031D0B2B0C2BF32AD9
:10061800E301E4010800831203134508D0004408ED
:10062800CF00C40A0319C50A03305002E830031981
:100638004F02031C202B212B242BC401C5010915B3
:10064800C83044064504031D2A2B2B2B2C2B0911DB
:100658000800683083120313EA00E3016708E40026
:100668006A30E5000A128A11EE220A128A1108007D
:10067800013083120313CF000808FE3983160313D1
:100688008800831203130808FE3988000800033025
:100698008A000408840A8207003452343A34253424
:1006A80075340D340A34003483120313CF000C1E42
:1006B8005E2B5F2B5B2B4F089900080064008001BC
:0E06C800840A0406031900340406632B01346F
:02400E00F42C90
:00000001FF
